:020000040000FA
:0600000073EF25F0120071
:020006001200E6
:080008009EAA02D0EFEF1FF0E9
:10001000F2A402D067EF1FF01200D08E9F8AF28EFA
:04002000F28C12004C
:0C0024000B0033530000400E00002200CF
:10003000000031530000FB0D000002000000134BD4
:100040000000230F0000010000005C5000000001D0
:100050000000D5020000484F000000090000140114
:100060000000FF4E00005D0D000049000000DD4E65
:1000700000001E0E0000220000009B4C0000000645
:100080000000420200007D4C0000000E00001E0037
:100090000000774B0000000B0000060100001A4B27
:0A00A0000000000D00005D000000EC
:0600AA00D9CFE6FFE1CF13
:1000B000D9FF0B0EE126050EDB6A060EDB6A070E82
:1000C000DB6A080EDB6A090EDB6A0B0EF36E0A0EA2
:1000D000F3CFDBFF0101016B026B036B046B0101CA
:1000E000056B066B076B086B0301D06B0301D16BCB
:1000F0000601016BDE6ADD6ADECF14F0DDCF15F09C
:10010000400E145C000E15585CE2DECF14F0DDCF1B
:1001100015F00B0E1502F3CF15F00B0E1402F3CFF2
:1001200014F0F4501526100E1426010E1522030E9D
:1001300014C0DBFF040E15C0DBFF020EDB6A0B0EE2
:10014000F36E020EDBCFF4FFF350F45C35E28AEC81
:1001500025F00400020EDB50166E176A0B0E086EB7
:10016000096ADECF0DF0DDCF0EF0EEEC24F0065084
:100170001624146E07501720156E14C0E6FF15C024
:10018000E6FF14EC24F0E552E552E66E020EDB5079
:10019000E76E030EDBCFE9FF040EDBCFEAFFE7508B
:1001A000E926000EEA22E552E750EF6E8AEC25F0D0
:1001B0000400020EDB2AC3D7DF2A010E01E3DB2A8B
:1001C0009BD70101310E0B6F0101330E0C6F010142
:1001D000310E0D6F0101330E0E6F01010F6B8AECB2
:1001E00025F00400F80EE66E140EE66EDD0EE66EE7
:1001F000CC0EE66EBB0EE66EAA0EE66EF9EC18F0BB
:10020000146E060EE15E14500101010E006F0B0E1C
:10021000E15C02E2E16AE552E16EE552E7CFD9FF27
:100220001200D9CFE6FFE1CFD9FF080EE126F29EFA
:100230000101000502E1F28E29D0F28E0301D251B4
:100240000B0DF3CFE9FFF4CFEAFF100EE926010E04
:10025000EA22090EE926000EEA22EF50E66E0301BB
:10026000D2510B0DF3CFE9FFF4CFEAFF100EE926D0
:10027000010EEA22E9CF14F0EACF15F014C0E6FF30
:1002800015C0E6FF0DD8E552E552E552080EE15CD7
:1002900002E2E16AE552E16EE552E7CFD9FF1200D2
:1002A000D9CFE6FFE1CFD9FFE652DF6AFD0EDBCF03
:1002B000E9FFFE0EDBCFEAFFEF5018E0FD0EDBCFCB
:1002C000E9FFFE0EDBCFEAFFEF50E66EDF50EA6A91
:1002D000A60FE96E0D0EEA22E552E750EF6EDF2A17
:1002E000FD0EDB2AFE0E01E3DB2AE0D7DF50DF2A1A
:1002F000EA6AA60FE96E0D0EEA22FC0EDBCFEFFFD5
:10030000DF50EA6AA60FE96E0D0EEA22EF6AA60E2A
:10031000E66E0D0EE66E25EC1BF0E552E552E55259
:10032000E552E7CFD9FF1200D9CFE6FFE1CFD9FFE1
:10033000050EE126DF6A400EDF5C46E2DF500B0D62
:10034000F3CFE9FFF4CFEAFF100EE926010EEA220F
:10035000E9CF14F0EACF15F014C0E6FF15C0E6FFB0
:10036000FD0EDBCFE6FFFE0EDBCFE6FFB1EC20F0AB
:10037000E552E552E552E552000924E1DF500B0D4C
:10038000F3CFE9FFF4CFEAFF100EE926010EEA22CF
:10039000090EE926000EEA22EF50520811E0DF5064
:1003A0000B0DF3CFE9FFF4CFEAFF100EE926010EA3
:1003B000EA22090EE926000EEA22EF50410802E186
:1003C000000ED4D0DF2AB7D7DF6A400EDF5C01E32E
:1003D000CBD0DF500B0DF3CFE9FFF4CFEAFF100EC7
:1003E000E926010EEA22090EE926000EEA22EF5064
:1003F00001E0B8D0DF500B0DF3CFE9FFF4CFEAFFF7
:10040000100EE926010EEA22090EE926000EEA2264
:10041000520EEF6EDF500B0DF3CFE9FFF4CFEAFF82
:10042000100EE926010EEA220A0EE926000EEA2243
:10043000010EEF6EFD0EDBCFE6FFFE0EDBCFE6FF1B
:10044000DF500B0DF3CFE9FFF4CFEAFF100EE926E2
:10045000010EEA22E9CF14F0EACF15F014C0E6FF4E
:1004600015C0E6FFD1EC20F0E552E552E552E55229
:10047000DF500B0DF3CF14F0F4CF15F0100E14264F
:10048000010E1522030E14C0DBFF040E15C0DBFFA6
:10049000010EDB6A0B0EF36E010EDBCFF4FFF3509F
:1004A000F45C24E2010EDB50E76E030EDBCFE9FFC4
:1004B000040EDBCFEAFFE750E926000EEA22EF50F8
:1004C000E66E010EDBCFE6FF0B0EDF02F350E552C6
:1004D000E724E66EE66A63EC23F0E552E552E55266
:1004E0008AEC25F00400010EDB2AD4D7520EE66E0A
:1004F000FD0EDBCFE6FFFE0EDBCFE6FFDCEC08F007
:10050000E552E552E552DF500B0DF3CFE9FFF4CF92
:10051000EAFF100EE926010EEA22090EE926000E76
:10052000EA22EF50E66EDF500B0DF3CFE9FFF4CF78
:10053000EAFF100EE926010EEA22E9CF14F0EACF15
:1005400015F014C0E6FF15C0E6FFAADEE552E5523D
:10055000E552DFCFD2F30101020E006F0E01146BE2
:10056000156B02D0DF2A31D7010E00D0146E050EB4
:10057000E15C02E2E16AE552E16E1450E552E7CF38
:10058000D9FF1200D9CFE6FFE1CFD9FF050EE12652
:10059000FD0EDBCFE9FFFE0EDBCFEAFF200EE926E2
:1005A000000EEA22EF28DF6E010EDB6A020EDB6A24
:1005B000400EDF5C01E3DF6AFD0EDBCFE9FFFE0EDC
:1005C000DBCFEAFF200EE926000EEA22EF68030ED9
:1005D000DB6A400EF36E030EDBCFF4FFF350F45CE6
:1005E00001E3EDD1DF503F0BDF6EDF500B0DF3CF9A
:1005F000E9FFF4CFEAFF100EE926010EEA22090E08
:10060000E926000EEA22EF50520801E0D4D1FD0E97
:10061000DBCFE9FFFE0EDBCFEAFFE9CF14F0EACF34
:1006200015F0010EDBCFF3FFDB2AF3500F0114248A
:10063000E96E000E1520EA6E530EEF6EFD0EDBCF55
:10064000E9FFFE0EDBCFEAFFE9CF14F0EACF15F0A9
:10065000010EDBCFF3FFDB2AF3500F011424E96E08
:10066000000E1520EA6E540EEF6EFD0EDBCFE9FF93
:10067000FE0EDBCFEAFFE9CF14F0EACF15F0010E52
:10068000DBCFF3FFDB2AF3500F011424E96E000ED9
:100690001520EA6E4E0EEF6EFD0EDBCFE9FFFE0E6B
:1006A000DBCFEAFFE9CF14F0EACF15F0010EDBCF84
:1006B000F3FFDB2AF3500F011424E96E000E15201E
:1006C000EA6E3A0EEF6EDF500B0DF3CFE9FFF4CF79
:1006D000EAFF100EE926010EEA22E9CF16F0EACF72
:1006E00017F0020EDBCFF3FFDB2AF3500F011624C5
:1006F000E96E000E1720EA6EEF50E66EFD0EDBCFBE
:10070000E9FFFE0EDBCFEAFFE9CF14F0EACF15F0E8
:10071000010EDBCFF3FFDB2AF3500F011424E96E47
:10072000000E1520EA6EE552E750EF6EDF500B0D1C
:10073000F3CFE9FFF4CFEAFF100EE926010EEA221B
:10074000E9CF16F0EACF17F0020EDBCFF3FFDB2A7A
:10075000F3500F011624E96E000E1720EA6EEF50D9
:10076000E66EFD0EDBCFE9FFFE0EDBCFEAFFE9CF41
:1007700014F0EACF15F0010EDBCFF3FFDB2AF350C4
:100780000F011424E96E000E1520EA6EE552E750C1
:10079000EF6EFD0EDBCFE9FFFE0EDBCFEAFFE9CF08
:1007A00014F0EACF15F0010EDBCFF3FFDB2AF35094
:1007B0000F011424E96E000E1520EA6E200EEF6E74
:1007C000FD0EDBCFE9FFFE0EDBCFEAFFE9CF14F031
:1007D000EACF15F0010EDBCFF3FFDB2AF3500F0158
:1007E0001424E96E000E1520EA6E430EEF6EFD0E26
:1007F000DBCFE9FFFE0EDBCFEAFFE9CF14F0EACF53
:1008000015F0010EDBCFF3FFDB2AF3500F011424A8
:10081000E96E000E1520EA6E4F0EEF6EFD0EDBCF77
:10082000E9FFFE0EDBCFEAFFE9CF14F0EACF15F0C7
:10083000010EDBCFF3FFDB2AF3500F011424E96E26
:10084000000E1520EA6E440EEF6EFD0EDBCFE9FFC1
:10085000FE0EDBCFEAFFE9CF14F0EACF15F0010E70
:10086000DBCFF3FFDB2AF3500F011424E96E000EF7
:100870001520EA6E450EEF6EFD0EDBCFE9FFFE0E92
:10088000DBCFEAFFE9CF14F0EACF15F0010EDBCFA2
:10089000F3FFDB2AF3500F011424E96E000E15203C
:1008A000EA6E3A0EEF6EDF500B0DF3CFE9FFF4CF97
:1008B000EAFF100EE926010EEA22E9CF16F0EACF90
:1008C00017F0020EDBCFF3FFDB2AF3500F011624E3
:1008D000E96E000E1720EA6EEF50E66EFD0EDBCFDC
:1008E000E9FFFE0EDBCFEAFFE9CF14F0EACF15F007
:1008F000010EDBCFF3FFDB2AF3500F011424E96E66
:10090000000E1520EA6EE552E750EF6EDF500B0D3A
:10091000F3CFE9FFF4CFEAFF100EE926010EEA2239
:10092000E9CF16F0EACF17F0020EDBCFF3FFDB2A98
:10093000F3500F011624E96E000E1720EA6EEF50F7
:10094000E66EFD0EDBCFE9FFFE0EDBCFEAFFE9CF5F
:1009500014F0EACF15F0010EDBCFF3FFDB2AF350E2
:100960000F011424E96E000E1520EA6EE552E750DF
:10097000EF6EFD0EDBCFE9FFFE0EDBCFEAFFE9CF26
:1009800014F0EACF15F0010EDB500F011424E96ECC
:10099000000E1520EA6EEF6ADFCFD3F3FD0EDBCF3A
:1009A000E9FFFE0EDBCFEAFF200EE926000EEA2269
:1009B000D3C3EFFF04D0030EDB2ADF2A0AD6050ECD
:1009C000E15C02E2E16AE552E16EE552E7CFD9FF70
:1009D0001200D9CFE6FFE1CFD9FFE652FE0EDB5081
:1009E0000B0DF3CFE9FFF4CFEAFF100EE926010E5D
:1009F000EA22090EE926000EEA22EF50520801E031
:100A00009DD0FE0EDB500B0DF3CFE9FFF4CFEAFFD4
:100A1000100EE926010EEA22090EE926000EEA224E
:100A2000410EEF6EFE0EDB500B0DF3CFE9FFF4CF5E
:100A3000EAFF100EE926010EEA220A0EE926000E50
:100A4000EA22010EEF6EFE0EDB500B0DF3CFE9FF35
:100A5000F4CFEAFF100EE926010EEA22090EE9267C
:100A6000000EEA22EF50E66EFE0EDB500B0DF3CFC8
:100A7000E9FFF4CFEAFF100EE926010EEA22E9CFE2
:100A800014F0EACF15F014C0E6FF15C0E6FF94DBC2
:100A9000E552E552E552FE0EDB500B0DF3CFE9FFB8
:100AA000F4CFEAFF100EE926010EEA22090EE9262C
:100AB000000EEA22EF50E66EFE0EDB500B0DF3CF78
:100AC000E9FFF4CFEAFF100EE926010EEA22E9CF92
:100AD00014F0EACF15F014C0E6FF15C0E6FF50ECA5
:100AE00001F0E552E552E552FE0EDBCFD2F30E01E6
:100AF000146B156B0101020E006FFE0EDB500B0D27
:100B0000F3CFE9FFF4CFEAFF100EE926010EEA2247
:100B1000090EE926000EEA22EF50E66EFE0EDB50CB
:100B20000B0DF350080F010FE66EE66A63EC23F03D
:100B3000E552E552E5528AEC25F00400E552E55213
:100B4000E7CFD9FF1200D9CFE6FFE1CFD9FF050EDD
:100B5000E126FD0EDBCFE9FFFE0EDBCFEAFF200E24
:100B6000E926000EEA22EF28DF6E010EDB6A020E94
:100B7000DB6A400EDF5C01E3DF6AFD0EDBCFE9FFDD
:100B8000FE0EDBCFEAFF200EE926000EEA22EF6818
:100B9000030EDB6A400EF36E030EDBCFF4FFF3505F
:100BA000F45C01E3EDD1DF503F0BDF6EDF500B0D46
:100BB000F3CFE9FFF4CFEAFF100EE926010EEA2297
:100BC000090EE926000EEA22EF50410801E0D4D1D7
:100BD000FD0EDBCFE9FFFE0EDBCFEAFFE9CF14F01D
:100BE000EACF15F0010EDBCFF3FFDB2AF3500F0144
:100BF0001424E96E000E1520EA6E530EEF6EFD0E02
:100C0000DBCFE9FFFE0EDBCFEAFFE9CF14F0EACF3E
:100C100015F0010EDBCFF3FFDB2AF3500F01142494
:100C2000E96E000E1520EA6E540EEF6EFD0EDBCF5E
:100C3000E9FFFE0EDBCFEAFFE9CF14F0EACF15F0B3
:100C4000010EDBCFF3FFDB2AF3500F011424E96E12
:100C5000000E1520EA6E4E0EEF6EFD0EDBCFE9FFA3
:100C6000FE0EDBCFEAFFE9CF14F0EACF15F0010E5C
:100C7000DBCFF3FFDB2AF3500F011424E96E000EE3
:100C80001520EA6E3A0EEF6EDF500B0DF3CFE9FF41
:100C9000F4CFEAFF100EE926010EEA22E9CF16F0A2
:100CA000EACF17F0020EDBCFF3FFDB2AF3500F0180
:100CB0001624E96E000E1720EA6EEF50E66EFD0E68
:100CC000DBCFE9FFFE0EDBCFEAFFE9CF14F0EACF7E
:100CD00015F0010EDBCFF3FFDB2AF3500F011424D4
:100CE000E96E000E1520EA6EE552E750EF6EDF5018
:100CF0000B0DF3CFE9FFF4CFEAFF100EE926010E4A
:100D0000EA22E9CF16F0EACF17F0020EDBCFF3FFAD
:100D1000DB2AF3500F011624E96E000E1720EA6E4D
:100D2000EF50E66EFD0EDBCFE9FFFE0EDBCFEAFFF4
:100D3000E9CF14F0EACF15F0010EDBCFF3FFDB2A89
:100D4000F3500F011424E96E000E1520EA6EE552EF
:100D5000E750EF6EFD0EDBCFE9FFFE0EDBCFEAFFC3
:100D6000E9CF14F0EACF15F0010EDBCFF3FFDB2A59
:100D7000F3500F011424E96E000E1520EA6E200EC8
:100D8000EF6EFD0EDBCFE9FFFE0EDBCFEAFFE9CF12
:100D900014F0EACF15F0010EDBCFF3FFDB2AF3509E
:100DA0000F011424E96E000E1520EA6E430EEF6E5B
:100DB000FD0EDBCFE9FFFE0EDBCFEAFFE9CF14F03B
:100DC000EACF15F0010EDBCFF3FFDB2AF3500F0162
:100DD0001424E96E000E1520EA6E4F0EEF6EFD0E24
:100DE000DBCFE9FFFE0EDBCFEAFFE9CF14F0EACF5D
:100DF00015F0010EDBCFF3FFDB2AF3500F011424B3
:100E0000E96E000E1520EA6E440EEF6EFD0EDBCF8C
:100E1000E9FFFE0EDBCFEAFFE9CF14F0EACF15F0D1
:100E2000010EDBCFF3FFDB2AF3500F011424E96E30
:100E3000000E1520EA6E450EEF6EFD0EDBCFE9FFCA
:100E4000FE0EDBCFEAFFE9CF14F0EACF15F0010E7A
:100E5000DBCFF3FFDB2AF3500F011424E96E000E01
:100E60001520EA6E3A0EEF6EDF500B0DF3CFE9FF5F
:100E7000F4CFEAFF100EE926010EEA22E9CF16F0C0
:100E8000EACF17F0020EDBCFF3FFDB2AF3500F019E
:100E90001624E96E000E1720EA6EEF50E66EFD0E86
:100EA000DBCFE9FFFE0EDBCFEAFFE9CF14F0EACF9C
:100EB00015F0010EDBCFF3FFDB2AF3500F011424F2
:100EC000E96E000E1520EA6EE552E750EF6EDF5036
:100ED0000B0DF3CFE9FFF4CFEAFF100EE926010E68
:100EE000EA22E9CF16F0EACF17F0020EDBCFF3FFCC
:100EF000DB2AF3500F011624E96E000E1720EA6E6C
:100F0000EF50E66EFD0EDBCFE9FFFE0EDBCFEAFF12
:100F1000E9CF14F0EACF15F0010EDBCFF3FFDB2AA7
:100F2000F3500F011424E96E000E1520EA6EE5520D
:100F3000E750EF6EFD0EDBCFE9FFFE0EDBCFEAFFE1
:100F4000E9CF14F0EACF15F0010EDB500F011424A5
:100F5000E96E000E1520EA6EEF6ADFCFD3F3FD0EC7
:100F6000DBCFE9FFFE0EDBCFEAFF200EE926000E05
:100F7000EA22D3C3EFFF04D0030EDB2ADF2A0AD60E
:100F8000050EE15C02E2E16AE552E16EE552E7CF6F
:100F9000D9FF1200D9CFE6FFE1CFD9FFE652FE0E0E
:100FA000DB500B0DF3CFE9FFF4CFEAFF100EE9267B
:100FB000010EEA22090EE926000EEA22EF5041084E
:100FC00001E09DD0FE0EDB500B0DF3CFE9FFF4CF17
:100FD000EAFF100EE926010EEA22090EE926000EAC
:100FE000EA22530EEF6EFE0EDB500B0DF3CFE9FF3E
:100FF000F4CFEAFF100EE926010EEA220A0EE926D6
:10100000000EEA22010EEF6EFE0EDB500B0DF3CF49
:10101000E9FFF4CFEAFF100EE926010EEA22090EDD
:10102000E926000EEA22EF50E66EFE0EDB500B0DB5
:10103000F3CFE9FFF4CFEAFF100EE926010EEA2212
:10104000E9CF14F0EACF15F014C0E6FF15C0E6FFB3
:10105000B3D8E552E552E552FE0EDB500B0DF3CF4F
:10106000E9FFF4CFEAFF100EE926010EEA22090E8D
:10107000E926000EEA22EF50E66EFE0EDB500B0D65
:10108000F3CFE9FFF4CFEAFF100EE926010EEA22C2
:10109000E9CF14F0EACF15F014C0E6FF15C0E6FF63
:1010A00050EC01F0E552E552E552FE0EDBCFD2F3F3
:1010B0000E01146B156B0101020E006FFE0EDB506A
:1010C0000B0DF3CFE9FFF4CFEAFF100EE926010E76
:1010D000EA22090EE926000EEA22EF50E66EFE0E25
:1010E000DB500B0DF350080F010FE66EE66A63EC60
:1010F00023F0E552E552E5528AEC25F00400E55272
:10110000E552E7CFD9FF1200D9CFE6FFE1CFD9FFF3
:10111000020EE126060101510601005D0BE1FD0E04
:10112000DBCFE9FFFE0EDBCFEAFFEE6AED6A010ED0
:10113000DB6A33D006010051090DF3CF14F0F4CF70
:1011400015F0020E1426060E1522FD0EDBCFE9FF68
:10115000FE0EDBCFEAFF14C0EEFF15C0EDFF060167
:101160000051090DF3CF14F0F4CF15F0020E142640
:10117000060E152214C0E6FF15C0E6FF0BEC21F0A9
:10118000E552E552010EF3CFDBFF0601002B400EC6
:101190000601005D02E30601006B010EDB5000D08A
:1011A000146E020EE15C02E2E16AE552E16E145057
:1011B000E552E7CFD9FF1200D9CFE6FFE1CFD9FF43
:1011C000020EE126DF6A010EDB6AFD0EDBCFE9FFCE
:1011D000FE0EDBCFEAFFEF5024E0FD0EDBCFE9FF90
:1011E000FE0EDBCFEAFFEF50E66E06010151090D5E
:1011F000F3CF14F0F4CF15F0020E1426060E1522CC
:10120000DF500F011424E96E000E1520EA6EE5523E
:10121000E750EF6EDF2AFD0EDB2AFE0E01E3DB2A2C
:10122000D4D706010151090DF3CF14F0F4CF15F016
:10123000020E1426060E1522DF500F011424E96E4B
:10124000000E1520EA6EFC0EDBCFEFFF0601015108
:10125000090DF3CF14F0F4CF15F0020E1426060E8C
:101260001522DF500F011424E96E000E1520EA6EDE
:10127000EF6A010E01C6DBFF0601012B400E0601DD
:10128000015D02E30601016B010EDB50146E156A6D
:1012900014C0F3FF15C0F4FF00D0020EE15C02E2BF
:1012A000E16AE552E16EE552E7CFD9FF1200D9CFEE
:1012B000E6FFE1CFD9FFFD0EDBCFE6FFFE0EDBCF71
:1012C000E6FF0B0EE66E010EE66EB1EC20F0E55285
:1012D000E552E552E552000902E0000E02D0010E8F
:1012E00000D0E552E7CFD9FF1200D9CFE6FFE1CF1A
:1012F000D9FFFE0EDBCFE6FFF00EE66E030EE66EC4
:1013000063EC23F0E552E552E5528AEC25F0040047
:10131000E552E7CFD9FF1200D9CFE6FFE1CFD9FFE1
:10132000FE0EDBCFE6FFF10EE66E030EE66E63EC1B
:1013300023F0E552E552E5528AEC25F00400E5522F
:10134000E7CFD9FF1200D9CFE6FFE1CFD9FF020ED8
:10135000E1260101016B026B036B046B0101056B5C
:10136000066B076B086B0301D36B0601016B06016B
:10137000006BDE6ADD6ADECF14F0DDCF15F0400EC3
:10138000145C000E155858E2DECFE9FFDDCFEAFF0E
:101390000B0EEA02F3CFEAFF0B0EE902F3CFE9FFEF
:1013A000F450EA26100EE926010EEA22090EE9267B
:1013B000000EEA22EF6ADECFE9FFDDCFEAFF0B0E77
:1013C000EA02F3CFEAFF0B0EE902F3CFE9FFF45094
:1013D000EA26100EE926010EEA220A0EE926000E80
:1013E000EA22EF6A090EE66EE66AE66ADECFE9FFF8
:1013F000DDCFEAFF0B0EEA02F3CFEAFF0B0EE902A4
:10140000F3CFE9FFF450EA26100EE926010EEA2296
:10141000E9CF14F0EACF15F014C0E6FF15C0E6FFDF
:1014200057EC20F0166E050EE15E16500400DF2A20
:10143000010E01E3DB2A9FD7DE6ADD6ADECF14F0FE
:10144000DDCF15F0400E145C000E15584BE2E66A35
:10145000DECF14F0DDCF15F00B0E1502F3CF15F033
:101460000B0E1402F3CF14F0F4501526080E1426B8
:10147000000E1522010E1426000E152214C0E6FFE0
:1014800015C0E6FF63EC23F0E552E552E5528AEC25
:1014900025F00400E66ADECF14F0DDCF15F00B0E68
:1014A0001502F3CF15F00B0E1402F3CF14F0F45025
:1014B0001526080E1426000E1522020E1426000E04
:1014C000152214C0E6FF15C0E6FF63EC23F0E552D9
:1014D000E552E5528AEC25F00400DF2A010E01E313
:1014E000DB2AACD7020EE15C02E2E16AE552E16E72
:1014F000E552E7CFD9FF1200D9CFE6FFE1CFD9FF00
:101500000C0EE126FD0EDBCFE9FFFE0EDBCFEAFF7E
:10151000EFCFDFFF010EDB6ADF50820A01E155D118
:10152000070A01E13AD1060A01E1ABD0030A01E062
:101530004DD20301D2510B0DF3CFE9FFF4CFEAFFF7
:10154000100EE926010EEA22E9CF14F0EACF15F0D9
:1015500014C0E6FF15C0E6FF010EE76EFD0EDBCFFF
:1015600016F0FE0EDBCF17F0E7501626000E1722FE
:1015700016C0E6FF17C0E6FFB1EC20F0E552E552D9
:10158000E552E55200096BE10301D2510B0DF3CF97
:10159000E9FFF4CFEAFF100EE926010EEA220A0E57
:1015A000E926000EEA22EF5004E10301D269FF0EA2
:1015B0001BD20301D2510B0DF3CFE9FFF4CFEAFFA9
:1015C000100EE926010EEA220A0EE926000EEA2292
:1015D000EF6AE66A0B0E0301D203F350080F020F05
:1015E000E66EE66A63EC23F0E552E552E5528AECDA
:1015F00025F004000301D2510B0DF3CFE9FFF4CF26
:10160000EAFF100EE926010EEA22090EE926000E75
:10161000EA22EF50530821E10301D2510B0DF3CF21
:10162000E9FFF4CFEAFF100EE926010EEA22090EC7
:10163000E926000EEA22EF6AE66A0B0E0301D203E6
:10164000F350080F010FE66EE66A63EC23F0E552F3
:10165000E552E5528AEC25F004000301D269010E3F
:10166000DB68FB0EDBCFE9FFFC0EDBCFEAFF800E71
:10167000EF6E0101010E006FE66ACBEC13F0E5524C
:10168000B0D1030EE66EF5EC13F0E552020EDB6A04
:10169000400EF36E020EDBCFF4FFF350F45C6EE20B
:1016A000020EDB500B0DF3CFE9FFF4CFEAFF100E73
:1016B000E926010EEA22E9CF14F0EACF15F014C0B2
:1016C000E6FF15C0E6FF010EE76EFD0EDBCF16F05C
:1016D000FE0EDBCF17F0E7501626000E172216C0BD
:1016E000E6FF17C0E6FFB1EC20F0E552E552E55207
:1016F000E552000940E1020EDB500B0DF3CFE9FF8C
:10170000F4CFEAFF100EE926010EEA22090EE926BF
:10171000000EEA22EF6AE66A020EDB500B0DF35070
:10172000080F010FE66EE66A63EC23F0E552E5521E
:10173000E5528AEC25F00400020EDB500301D25D75
:101740000DE10301D269020E0101005D07E1010113
:10175000010E006FE66ACBEC13F0E552FB0EDBCF17
:10176000E9FFFC0EDBCFEAFF830EEF6E010EDB6AB2
:10177000010EDB5039D1020EDB2A8AD7E66ACBECA8
:1017800013F0E552FB0EDBCFE9FFFC0EDBCFEAFFE7
:10179000840EEF6E010EDB6A24D1040EE66EF5ECCA
:1017A00013F0E552D0DDFB0EDBCFE9FFFC0EDBCF03
:1017B000EAFF850EEF6E010EDB6A0101010E006F7C
:1017C000E66ACBEC13F0E5520CD1040EDB6A050E91
:1017D000DB6A060EDB6A030EDB6A400EF36E030E55
:1017E000DBCFF4FFF350F45C41E2030EDB500B0D52
:1017F000F3CFE9FFF4CFEAFF100EE926010EEA224B
:10180000090EE926000EEA22EF50520803E1040E09
:10181000DB2A29D0030EDB500B0DF3CFE9FFF4CF09
:10182000EAFF100EE926010EEA22090EE926000E53
:10183000EA22EF50410803E1050EDB2A14D0030E23
:10184000DB500B0DF3CFE9FFF4CFEAFF100EE926D2
:10185000010EEA22090EE926000EEA22EF50530893
:1018600002E1060EDB2A030EDB2AB7D70D01D86B87
:101870007F0EE66E450EE66ED80EE66E0D0EE66E37
:1018800071EC20F0E552E552E552E552D950070FD0
:10189000E66E000EDA20E66E040EDBCFE6FFE66AA7
:1018A00019EC21F0E552E552E552E552F3CF14F080
:1018B000F4CF15F014C0E6FF15C0E6FFD80EE66EB3
:1018C0000D0EE66E71EC20F0E552E552E552E55260
:1018D0007B0EE66E450EE66ED80EE66E0D0EE66EDB
:1018E00071EC20F0E552E552E552E552D950070F70
:1018F000E66E000EDA20E66E050EDBCFE6FFE66A46
:1019000019EC21F0E552E552E552E552F3CF14F01F
:10191000F4CF15F014C0E6FF15C0E6FFD80EE66E52
:101920000D0EE66E71EC20F0E552E552E552E552FF
:10193000770EE66E450EE66ED80EE66E0D0EE66E7E
:1019400071EC20F0E552E552E552E552D950070F0F
:10195000E66E000EDA20E66E060EDBCFE6FFE66AE4
:1019600019EC21F0E552E552E552E552F3CF14F0BF
:10197000F4CF15F014C0E6FF15C0E6FFD80EE66EF2
:101980000D0EE66E71EC20F0E552E552E552E5529F
:10199000D80EE66E0D0EE66E0BEC21F0E552E55228
:1019A000010EF3CFDBFFF90EDBCFE9FFFA0EDBCF41
:1019B000EAFFD80EEE6E0D0EED6EFB0EDBCFE9FFEB
:1019C000FC0EDBCFEAFF820EEF6E0BD0010EDB6A5E
:1019D000FB0EDBCFE9FFFC0EDBCFEAFF920EEF6ED2
:1019E00000D0010EDB5000D0146E0C0EE15C02E260
:1019F000E16AE552E16E1450E552E7CFD9FF1200DB
:101A0000D9CFE6FFE1CFD9FF080EE66E1BEC1DF043
:101A1000E552E66A45EC15F0E552FE0EDBCF19FD06
:101A2000FD0EDBCF1AFDF1EC14F006EC15F0E552DB
:101A3000E7CFD9FF12000D01005100D01200D9CF1D
:101A4000E6FFE1CFD9FF140EE126DF680A0E0D0193
:101A5000005D11E10D0118070D0118510AE1E66A58
:101A600045EC15F0E552F1EC14F006EC15F00D0123
:101A7000006B2AEF12F0D950020FE66E000EDA204A
:101A8000E66ED950030FE66E000EDA20E66E73ECB8
:101A90001EF0E552E552E552E552000902E12AEF57
:101AA00012F0020EDBCFE6FF030EDBCFE6FF34ECD5
:101AB00012F0E552E552DF6EFF0EDF5C02E12AEF25
:101AC00012F00D010051090A02E11DEF12F0050AA2
:101AD00002E1CFEF11F0070A02E181EF11F00D0AE8
:101AE00001E152D3030A01E1FCD2010A01E1E0D293
:101AF0000C0A01E173D20B0A01E106D2020A01E1EC
:101B0000E4D0010A02E029EF12F0080EDF5C12E1D6
:101B10000D010B5100080DE2DFCFE6FF5EEC1DF07A
:101B2000E5520D010B070D011751000802E20D01EE
:101B30001707CAD00A0EDF5C64E1050EDB6A0D01EF
:101B40000B5100085DE237EC14F0E76E050EE7CFAD
:101B5000DBFF050EDBCF14F00D011A51D8801454B1
:101B600008E3010EF36E050EDBCFF4FFF350F45CD7
:101B70003DE24ECE14F04FCE15F0166A14C0E6FFCB
:101B800015C0E6FF16C0E6FF000EE66E0F0EE66E0D
:101B9000F2EC20F0176E050EE15E175060CE14F0E7
:101BA00061CE15F0166A14C0E6FF15C0E6FF16C038
:101BB000E6FF000EE66E0F0EE66E95EC20F0176E57
:101BC000050EE15E1750F1EC14F006EC15F00D0176
:101BD0000A0E186F000EE66E0F0EE66E17EC15F08B
:101BE000E552E5520D010A0E006F0AD0010EE66EB5
:101BF00045EC15F0E552F1EC14F00D01010E006F0B
:101C000063D0130EDF5C0BE1020EE66E45EC15F0BF
:101C1000E552F1EC14F00D01050E006F55D00C0EDD
:101C2000DF5C1CE13C0EE66E0D0EE66EA3EC05F0EB
:101C3000E552E552FF0E0D015C5D0FE03C0EE66ED5
:101C40000D0EE66E17EC15F0E552E552F1EC14F0CE
:101C500006EC15F00D01080E006F36D00B0EDF5CA0
:101C60001CE11B0EE66E0D0EE66EC2EC02F0E552B4
:101C7000E552FF0E0D013B5D0FE01B0EE66E0D0EF3
:101C8000E66E17EC15F0E552E552F1EC14F006ECB7
:101C900015F00D01030E006F17D00D010B51EA6A0C
:101CA000020FE96E0D0EEA22DFCFEFFF0D010B519F
:101CB000EA6A020FE96E0D0EEA22EF50E66E5EEC64
:101CC0001DF0E5520D010B2BC5D3080EDF5C17E1AB
:101CD0000D010B51000808E2DFCFE6FF5EEC1DF0BE
:101CE000E5520D010B070AD0E66A45EC15F0E55206
:101CF000F1EC14F006EC15F00D01006B04D10A0EA6
:101D0000DF5C01E0E9D0060EDB6A0D010B51000833
:101D100001E3E1D08CEC14F0E76E060EE7CFDBFFB9
:101D2000060EDBCF14F00D011951D880145408E3CE
:101D3000010EF36E060EDBCFF4FFF350F45C3DE2D0
:101D40004CCE14F04DCE15F0166A14C0E6FF15C047
:101D5000E6FF16C0E6FF000EE66E0F0EE66EF2EC32
:101D600020F0176E050EE15E175060CE14F061CEC4
:101D700015F0166A14C0E6FF15C0E6FF16C0E6FFB0
:101D8000000EE66E0F0EE66E95EC20F0176E050E57
:101D9000E15E1750F1EC14F006EC15F00D010A0E9F
:101DA000186F000EE66E0F0EE66E17EC15F0E5529A
:101DB000E5520D010A0E006F8ED037EC14F00D01C4
:101DC0001751EA6A0E0FE96E0D0EEA22EF6A0E0E47
:101DD000E66E0D0EE66E94EC01F0E552E552000958
:101DE0003DE14ACE14F04BCE15F0166A14C0E6FF62
:101DF00015C0E6FF16C0E6FF000EE66E0F0EE66E9B
:101E0000F2EC20F0176E050EE15E175060CE14F074
:101E100061CE15F0166A14C0E6FF15C0E6FF16C0C5
:101E2000E6FF000EE66E0F0EE66E95EC20F0176EE4
:101E3000050EE15E1750F1EC14F006EC15F00D0103
:101E40000A0E186F000EE66E0F0EE66E17EC15F018
:101E5000E552E5520D010A0E006FFCD240CE14F09F
:101E600041CE15F0166A14C0E6FF15C0E6FF16C095
:101E7000E6FF000EE66E0F0EE66EF2EC20F0176E37
:101E8000050EE15E17505ECE14F05FCE15F0166AB7
:101E900014C0E6FF15C0E6FF16C0E6FF000EE66EB2
:101EA0000F0EE66E95EC20F0176E050EE15E1750F2
:101EB000000EE66E0F0EE66E17EC15F0E552E552D9
:101EC000F1EC14F006EC15F00D01090E006F0D0198
:101ED0000C690D010D6B17D00D010B51EA6A020F51
:101EE000E96E0D0EEA22DFCFEFFF0D010B51EA6A1A
:101EF000020FE96E0D0EEA22EF50E66E5EEC1DF069
:101F0000E5520D010B2BA6D2080EDF5C0BE1E66A51
:101F100045EC15F0E552F1EC14F006EC15F00D016E
:101F2000006B5BD00B0EDF5C15E11B0EE66E0D0E39
:101F3000E66EC2EC02F0E552E552FF0E0D013B5D8C
:101F400008E01B0EE66E0D0EE66E17EC15F0E5527E
:101F5000E55243D00A0EDF5C40E13BCDE6FFE9EC01
:101F600004F0E5520D013B6942CE14F043CE15F06A
:101F7000166A14C0E6FF15C0E6FF16C0E6FF000EA5
:101F8000E66E0F0EE66EF2EC20F0176E050EE15EC7
:101F900017505ECE14F05FCE15F0166A14C0E6FF3F
:101FA00015C0E6FF16C0E6FF000EE66E0F0EE66EE9
:101FB00095EC20F0176E050EE15E1750000EE66EF0
:101FC0000F0EE66E17EC15F0E552E552F1EC14F049
:101FD00006EC15F00D01090E006F3CD2080EDF5C17
:101FE0000BE1E66A45EC15F0E552F1EC14F006EC75
:101FF00015F00D01006B5BD00C0EDF5C15E13C0EA3
:10200000E66E0D0EE66EA3EC05F0E552E552FF0E0E
:102010000D015C5D08E03C0EE66E0D0EE66E17EC01
:1020200015F0E552E55243D00A0EDF5C40E15CCD8D
:10203000E6FFCAEC07F0E5520D015C6944CE14F0EE
:1020400045CE15F0166A14C0E6FF15C0E6FF16C0AF
:10205000E6FF000EE66E0F0EE66EF2EC20F0176E55
:10206000050EE15E17505ECE14F05FCE15F0166AD5
:1020700014C0E6FF15C0E6FF16C0E6FF000EE66ED0
:102080000F0EE66E95EC20F0176E050EE15E175010
:10209000000EE66E0F0EE66E17EC15F0E552E552F7
:1020A000F1EC14F006EC15F00D01090E006FD2D121
:1020B000080EDF5C09E1E66A45EC15F0E552F1EC4B
:1020C00014F00D01006B0CD00A0EDF5C09E1A3ECEB
:1020D00009F0F1EC14F006EC15F0E66A5CDBE55271
:1020E000B9D1080EDF5C0BE1E66A45EC15F0E5526C
:1020F000F1EC14F006EC15F00D01006B44D00A0E63
:10210000DF5C31E1070EDB6A0D010B51EA6A020F59
:10211000E96E0D0EEA22EF6A020EE66E0D0EE66E15
:1021200057EC09F0E552E552E76E070EE7CFDBFF0B
:10213000070EDB040DE1030EE66E45EC15F0E552EB
:10214000F1EC14F006EC15F00D01060E006F0AD04C
:10215000E66A45EC15F0E552F1EC14F006EC15F0EA
:102160000D01006B10D00D010B51EA6A020FE96EF0
:102170000D0EEA22DFCFEFFF2A0EE66E5EEC1DF0B9
:10218000E5520D010B2B66D1080EDF5C0BE1E66A10
:1021900045EC15F0E552F1EC14F006EC15F00D01EC
:1021A000006BAED0300EDF5C0DE1040EE66E45EC48
:1021B00015F0E552F1EC14F006EC15F00D01040EEB
:1021C000006F9ED0310EDF5C4DE150CE14F051CE49
:1021D00015F0166A14C0E6FF15C0E6FF16C0E6FF4C
:1021E000000EE66E0F0EE66EF2EC20F0176E050E96
:1021F000E15E1750D950080FE66E000EDA20E66E49
:102200000D011A51E66EE66A19EC21F0E552E5522D
:10221000E552E552F3CF14F0F4CF15F014C0E6FF09
:1022200015C0E6FF000EE66E0F0EE66E71EC20F0B4
:10223000E552E552E552E552000EE66E0F0EE66EEF
:1022400017EC15F0E552E5520D0EE66E010EE66E46
:102250002DEC1DF0E552E552C4DBD8DB0D010B0E71
:10226000006F4ED0320EDF5C4BE152CE14F053CEF5
:1022700015F0166A14C0E6FF15C0E6FF16C0E6FFAB
:10228000000EE66E0F0EE66EF2EC20F0176E050EF5
:10229000E15E1750D9500D0FE66E000EDA20E66EA3
:1022A0000D011951E66EE66A19EC21F0E552E5528E
:1022B000E552E552F3CF14F0F4CF15F014C0E6FF69
:1022C00015C0E6FF000EE66E0F0EE66E71EC20F014
:1022D000E552E552E552E552000EE66E0F0EE66E4F
:1022E000A6DBE552E5520A0EE66E010EE66E2DEC17
:1022F0001DF0E552E55275DB89DB0D010C0E006F18
:10230000A9D0080EDF5C14E10D010B51000808E2B2
:10231000DFCFE6FF5EEC1DF0E5520D010B0707D0A5
:10232000E66AB3DBE5525DDB71DB0D01006B36D095
:102330000A0EDF5C1CE1120EDB6A0D010B51000876
:1023400015E295DAE76E120EE7CFDBFF120EDBCF58
:10235000E6FF75EC09F0E552120EDBCF1AFDE66AD6
:1023600094DBE5523EDB52DB0D01006B17D00D0113
:102370000B51EA6A020FE96E0D0EEA22DFCFEFFF82
:102380000D010B51EA6A020FE96E0D0EEA22EF50C1
:10239000E66E5EEC1DF0E5520D010B2B5BD0080ED6
:1023A000DF5C14E10D010B51000808E2DFCFE6FF0E
:1023B0005EEC1DF0E5520D010B0707D0E66A65DB08
:1023C000E5520FDB23DB0D01006B36D00A0EDF5C1C
:1023D0001CE1130EDB6A0D010B51000815E247DA10
:1023E000E76E130EE7CFDBFF130EDBCFE6FF8CECBF
:1023F00009F0E552130EDBCF19FDE66A46DBE55224
:10240000F0DA04DB0D01006B17D00D010B51EA6A05
:10241000020FE96E0D0EEA22DFCFEFFF0D010B5127
:10242000EA6A020FE96E0D0EEA22EF50E66E5EECEC
:102430001DF0E5520D010B2B0DD0130EDF5C08E1F2
:10244000020EE66E22DBE552CCDA0D01050E006FBE
:1024500001D000D0140EE15C02E2E16AE552E16EC7
:10246000E552E7CFD9FF1200D9CFE6FFE1CFD9FF80
:10247000E652DF680D010051090A01E171D1050A38
:1024800001E131D1070A01E1F1D00D0A01E1CFD01C
:10249000020A01E1B6D0010A01E1A4D00D0A01E16E
:1024A00088D00B0A6DE0020A37E0010A01E06BD127
:1024B000FE0EDB50050DF3CFF6FFF4CFF7FF840ED1
:1024C000F626480EF7220800F550DF6E020E0D01C9
:1024D0000B5D08E3080EDF5C04E00A0EDF5C01E040
:1024E000DF6819D00D010B51000811E20D010B51ED
:1024F0000EE02A0EDF5C09E00B0EDF5C06E00C0E3E
:10250000DF5C03E0130EDF5C01E1DF6804D02A0E1C
:10251000DF5C01E1DF6838D1FE0EDB50050DF3CF43
:10252000F6FFF4CFF7FF840EF626480EF7220800D8
:10253000F550DF6E310EDF5C22E0320EDF5C1FE013
:10254000330EDF5C1CE0340EDF5C19E0350EDF5C1F
:1025500016E0360EDF5C13E0370EDF5C10E0380E5D
:10256000DF5C0DE0390EDF5C0AE0300EDF5C07E077
:10257000080EDF5C04E00A0EDF5C01E0DF6804D1D6
:10258000FE0EDB50050DF3CFF6FFF4CFF7FF840E00
:10259000F626480EF7220800F550DF6E0A0EDF5CC3
:1025A00007E0080EDF5C04E00B0EDF5C01E0DF6893
:1025B000EBD0FE0EDB50050DF3CFF6FFF4CFF7FFA7
:1025C000840EF626480EF7220800F550DF6E0A0E3C
:1025D000DF5C07E0080EDF5C04E00C0EDF5C01E06E
:1025E000DF68D2D0FE0EDB50050DF3CFF6FFF4CF3F
:1025F000F7FF840EF626480EF7220800F550DF6E2E
:10260000C3D0FE0EDB50050DF3CFF6FFF4CFF7FF7E
:10261000840EF626480EF7220800F550DF6E0A0EEB
:10262000DF5C04E0080EDF5C01E0DF68ADD0FE0E89
:10263000DB50050DF3CFF6FFF4CFF7FF840EF6263F
:10264000480EF7220800F550DF6E300EDF5C0DE01B
:10265000310EDF5C0AE0320EDF5C07E0080EDF5C63
:1026600004E00A0EDF5C01E0DF688ED0FE0EDB5076
:10267000050DF3CFF6FFF4CFF7FF840EF626480ED4
:10268000F7220800F550DF6E020E0D010B5D08E326
:10269000080EDF5C04E00A0EDF5C01E0DF6822D098
:1026A0000D010B51000811E20D010B510EE02A0E35
:1026B000DF5C09E00B0EDF5C06E00C0EDF5C03E084
:1026C000130EDF5C01E1DF680DD02A0EDF5C09E04C
:1026D0000B0EDF5C06E00C0EDF5C03E0130EDF5C2C
:1026E00001E1DF6851D0FE0EDB50050DF3CFF6FFA0
:1026F000F4CFF7FF840EF626480EF7220800F550B7
:10270000DF6E020E0D010B5D08E3080EDF5C04E0D6
:102710000A0EDF5C01E0DF6822D00D010B510008DA
:1027200011E20D010B510EE02A0EDF5C09E00B0EE9
:10273000DF5C06E00C0EDF5C03E0130EDF5C01E102
:10274000DF680DD02A0EDF5C09E00B0EDF5C06E0CF
:102750000C0EDF5C03E0130EDF5C01E1DF6814D0D8
:10276000FE0EDB50050DF3CFF6FFF4CFF7FF840E1E
:10277000F626480EF7220800F550DF6E130EDF5CD8
:1027800001E0DF6801D000D0DF5000D0E552E55213
:10279000E7CFD9FF1200D9CFE6FFE1CFD9FFFE0E78
:1027A000DB50010A13E0010A01E01AD00D013B6978
:1027B0000D015C69E66A69D9E55213D927D90D0183
:1027C000006B0D010C690D010D6B0BD0010EE66E57
:1027D0005CD9E55206D91AD90D01010E006F01D05E
:1027E00000D0E552E7CFD9FF1200D9CFE6FFE1CF05
:1027F000D9FF40CE14F041CE15F0166A14C0E6FFA2
:1028000015C0E6FF16C0E6FF000EE66E0F0EE66E80
:10281000F2EC20F0176E050EE15E17505ECE14F05C
:102820005FCE15F0166A14C0E6FF15C0E6FF16C0AD
:10283000E6FF000EE66E0F0EE66E95EC20F0176ECA
:10284000050EE15E1750000EE66E0F0EE66EEFD835
:10285000E552E552C6D8DAD80D01090E006F0D0118
:102860000C690D010D6BE552E7CFD9FF1200D9CFEE
:10287000E6FFE1CFD9FF020EE126010EDB6A0D0172
:102880000B0517E10D011751EA6A0E0FE96E0D0EE7
:10289000EA22300EEF6E0D01172B0D011751EA6A77
:1028A0000E0FE96E0D0EEA2202CDEFFF0D01172B80
:1028B00016D00D011751EA6A0E0FE96E0D0EEA22CD
:1028C00002CDEFFF0D01172B0D011751EA6A0E0F14
:1028D000E96E0D0EEA2203CDEFFF0D01172B300E2E
:1028E0000D010F5D146E300E0D010E5D0A0DF350DB
:1028F0001424E76E010EE7CFDBFF010EDB5000D0A2
:10290000146E020EE15C02E2E16AE552E16E1450DF
:10291000E552E7CFD9FF1200D9CFE6FFE1CFD9FFCB
:10292000020EE126010EDB6A0D010B0508E1300EF7
:102930000D01025DE76E010EE7CFDBFF0ED0300E1A
:102940000D01035D146E300E0D01025D0A0DF35092
:102950001424E76E010EE7CFDBFF010EDB5000D041
:10296000146E020EE15C02E2E16AE552E16E14507F
:10297000E552E7CFD9FF1200D9CFE6FFE1CFD9FF6B
:10298000E652DF6A0D010B51DF5C16E2DF50EA6AA6
:10299000020FE96E0D0EEA22EF50E66E0D0117519F
:1029A000EA6A0E0FE96E0D0EEA22E552E750EF6E6D
:1029B0000D01172BDF2AE6D70D011751EA6A0E0F1A
:1029C000E96E0D0EEA22EF6A0D01172B080E0D01BC
:1029D000175D02E30D01176BE552E552E7CFD9FF12
:1029E0001200080EE66EE66AE66A020EE66E0D0E4C
:1029F000E66E57EC20F0146E050EE15E14500D01EA
:102A00000B6B0D010D6B0D010C691200080EE66ECB
:102A1000E66AE66A0E0EE66E0D0EE66E57EC20F0E4
:102A2000146E050EE15E14500D01176B1200D9CF24
:102A3000E6FFE1CFD9FFE65226EC1DF0DF6ADF505A
:102A4000E76EFD0EDBCFE9FFFE0EDBCFEAFFE750BE
:102A5000E926000EEA22EF5013E0DF50E76EFD0E8C
:102A6000DBCFE9FFFE0EDBCFEAFFE750E926000EE1
:102A7000EA22EF50E66E5EEC1DF0E552DF2ADFD76A
:102A8000E552E552E7CFD9FF1200D9CFE6FFE1CFFB
:102A9000D9FF030EE126FE0EEA6ADB34FE0BEA36AE
:102AA000E96E540EE9260E0EEA22010EEECFDBFF90
:102AB000020EEDCFDBFF26EC1DF0DF6ADF50E76E84
:102AC000010EDBCFF6FF020EDBCFF7FFE750F62655
:102AD000000EF7220800F55014E0DF50E76E010EFB
:102AE000DBCFF6FF020EDBCFF7FFE750F626000E36
:102AF000F7220800F550E66E5EEC1DF0E552DF2A85
:102B0000DDD7030EE15C02E2E16AE552E16EE552D7
:102B1000E7CFD9FF1200D9CFE6FFE1CFD9FF030EEF
:102B2000E126FE0EEA6ADB34FE0BEA36E96E540E4D
:102B3000E9260E0EEA22010EEECFDBFF020EEDCFEC
:102B4000DBFFDF6ADF50E76E010EDBCFF6FF020E20
:102B5000DBCFF7FFE750F626000EF7220800F5500E
:102B600014E0DF50E76E010EDBCFF6FF020EDBCF85
:102B7000F7FFE750F626000EF7220800F550E66E44
:102B80005EEC1DF0E552DF2ADDD7030EE15C02E2C8
:0E2B9000E16AE552E16EE552E7CFD9FF12008F
:022B9E00DACF8C
:102BA000E4FFE2CFDAFFE9CFE4FFEACFE4FFF6CFBC
:102BB000E4FFF7CFE4FFF5CFE4FFF3CFE4FFF4CF7A
:102BC000E4FFFACFE4FF00EE00F0140EE80403E3A4
:102BD000EECFE4FFFBD700EE14F0040EE80403E3AD
:102BE000EECFE4FFFBD7E652D9CFE6FFE1CFD9FF26
:102BF000E652B0EC24F0DF6E0C018951892BEA6AB1
:102C00008C0FE96E0C0EEA22DFCFEFFF800E0C0175
:102C1000895D02E30C01896B0C018B2BA49AE552B0
:102C2000E552E7CFD9FFE55200EE17F0040EE804B5
:102C300003E3E5CFEDFFFBD700EE13F0140EE8043D
:102C400003E3E5CFEDFFFBD7E5CFFAFFE5CFF4FFD8
:102C5000E5CFF3FFE5CFF5FFE5CFF7FFE5CFF6FFD3
:102C6000E5CFEAFFE5CFE9FFE5CFDAFF1100D9CFE5
:102C7000E6FFE1CFD9FFE6529D9A0B018451842BE8
:102C8000EA6A860FE96E0B0EEA22EFCFDFFF800EB5
:102C90000B01845D02E30B01846B000E0B01E76EF8
:102CA0008519E8AE02D0853503D0E750D880855528
:102CB00002E20B0185079D8ADF5000D0E552E55204
:102CC000E7CFD9FF1200D9CFE6FFE1CFD9FFE65217
:102CD000A39A0C018A518A2BEA6A8C0FE96E0C0EBA
:102CE000EA22EFCFDFFF800E0C018A5D02E30C01C8
:102CF0008A6B000E0C01E76E8B19E8AE02D08B35A3
:102D000003D0E750D8808B5502E20C018B079D8AD7
:102D1000DF5000D0E552E552E7CFD9FF1200DACFFD
:102D2000E4FFE2CFDAFFE9CFE4FFEACFE4FFE652C7
:102D3000D9CFE6FFE1CFD9FFE6520B01025104E102
:102D4000ACA2FED7AC9A21D00B010151EA6A030F65
:102D5000E96E0B0EEA22EFCFDFFFDF50AD6E0B0105
:102D6000012B800E0B01015D02E30B01016B000ED4
:102D70000B01E76E0219E8AE02D0023503D0E7502E
:102D8000D880025502E20B010207E552E552E7CF77
:102D9000D9FFE552E5CFEAFFE5CFE9FFE5CFDAFF5E
:102DA0001100DACFE4FFE2CFDAFFE9CFE4FFEACFA8
:102DB000E4FFE652D9CFE6FFE1CFD9FFE6520C019E
:102DC000085104E172A2FED7729A21D00C0107517A
:102DD000EA6A090FE96E0C0EEA22EFCFDFFFDF503F
:102DE000736E0C01072B800E0C01075D02E30C01D2
:102DF000076B000E0C01E76E0819E8AE02D008352B
:102E000003D0E750D880085502E20C010807E552CC
:102E1000E552E7CFD9FFE552E5CFEAFFE5CFE9FF7D
:102E2000E5CFDAFF1100D9CFE6FFE1CFD9FFE652B7
:102E30007C0EDF6ED950FB0FE96EFF0EDA20EA6ED2
:102E4000EE2A000EEE22000EEE22000EEE22D950E7
:102E5000FB0FE96EFF0EDA20EA6E040EE76ED890E3
:102E6000EF36010EEB36020EEB36030EEB36E706BD
:102E7000F6E1146A240E156EF40E166E176A14C06D
:102E800006F015C007F016C008F017C009F0FB0ED9
:102E9000DBCF0BF0FC0EDBCF0CF0FD0EDBCF0DF02B
:102EA000FE0EDBCF0EF06AEC24F0FB0E06C0DBFF5B
:102EB000FC0E07C0DBFFFD0E08C0DBFFFE0E09C0E5
:102EC000DBFFFB0EDBCFE6FFFC0EDBCFE6FFDFCF49
:102ED000E6FFDBEC23F0E552E552E552AC8AAC9E0E
:102EE000E552E552E7CFD9FF1200D9CFE6FFE1CF97
:102EF000D9FFE6527C0EDF6E670EE66EE66ADFCF24
:102F0000E6FF9FEC23F0E552E552E552D08E718E3C
:102F1000728A729EA38AA58AE552E552E7CFD9FF4D
:102F20001200D9CFE6FFE1CFD9FFACA2FED70B014B
:102F30000051002BEA6A030FE96E0B0EEA22FE0E27
:102F4000DBCFEFFF0B01022B800E0B01005D02E3D4
:102F50000B01006B010E00D0E552E7CFD9FF120044
:102F6000D9CFE6FFE1CFD9FF72A2FED70C010651FF
:102F7000062BEA6A090FE96E0C0EEA22FE0EDBCF81
:102F8000EFFF0C01082B800E0C01065D02E30C0123
:102F9000066B010E00D0E552E7CFD9FF1200D9CF62
:102FA000E6FFE1CFD9FF060EE126010EF36E020E19
:102FB000F3CFDBFF030EDB6A020EDBCF14F0DB0680
:102FC000030EDBCF15F001E2DB061450151006E00E
:102FD000040EE66E44EC25F0E552EED7000E0B0130
:102FE000E76E0219E8AE02D0023503D0E750D88070
:102FF000025528E20B010151EA6A030FE96E0B0E3C
:10300000EA22010EEFCFDBFFACA2FED7010EDB50B0
:10301000AD6EACA2FED70B01012B800E0B01015D42
:1030200002E30B01016B000E0B01E76E0219E8AE23
:1030300002D0023503D0E750D880025502E20B01DE
:103040000207CCD7010EF36E040EF3CFDBFF050EA3
:10305000DB6A040EDBCF14F0DB06050EDBCF15F0C8
:1030600001E2DB061450151006E0040EE66E44EC97
:1030700025F0E552EED7146E060EE15C02E2E16A3D
:10308000E552E16E1450E552E7CFD9FF1200D9CFD7
:10309000E6FFE1CFD9FF060EE126010EF36E020E28
:1030A000F3CFDBFF030EDB6A020EDBCF14F0DB068F
:1030B000030EDBCF15F001E2DB061450151006E01D
:1030C000040EE66E44EC25F0E552EED7000E0C013E
:1030D000E76E0819E8AE02D0083503D0E750D88073
:1030E000085528E20C010751EA6A090FE96E0C0E37
:1030F000EA22010EEFCFDBFF72A2FED7010EDB50FA
:10310000736E72A2FED70C01072B800E0C01075DB7
:1031100002E30C01076B000E0C01E76E0819E8AE24
:1031200002D0083503D0E750D880085502E20C01E0
:103130000807CCD7010EF36E040EF3CFDBFF050EAC
:10314000DB6A040EDBCF14F0DB06050EDBCF15F0D7
:1031500001E2DB061450151006E0040EE66E44ECA6
:1031600025F0E552EED7146E060EE15C02E2E16A4C
:10317000E552E16E1450E552E7CFD9FF1200D9CFE6
:10318000E6FFE1CFD9FFE652DF6AA39A000E0C01F9
:10319000E76E8B19E8AE02D08B3503D0E750D880AC
:1031A0008B5502E2010EDF6EA38ADF5000D0E5529C
:1031B000E552E7CFD9FF1200D9CFE6FFE1CFD9FF23
:1031C000E652DF6A9D9A000E0B01E76E8519E8AEA4
:1031D00002D0853503D0E750D880855502E2010E34
:1031E000DF6E9D8ADF5000D0E552E552E7CFD9FF70
:0231F0001200CB
:0E31F200D9CFE6FFE1CFD9FFFE0EDBCF01F90A
:10320000FD0EDBCF02F9FC0EDBCF03F9FB0EDBCFAB
:1032100004F9F90EDBCF09FAFA0EDBCF0AFA04D86B
:10322000E552E7CFD9FF1200240EE66EF40EE66EEB
:10323000E66AE66A13EC17F0E552E552E552E5520C
:103240000A01056B0A01066B0901010E006F0A01F4
:10325000076B0A01050E086F0FCA0BFA10CA0CFAA9
:1032600011CA0DFA12CA0EFA00C913FA12000A01A5
:10327000056B0A01066B0901010E006F0A01076B5D
:103280000A01050E086F0FCA0BFA10CA0CFA11CA10
:103290000DFA12CA0EFA00C913FA1200D9CFE6FFCE
:1032A000E1CFD9FF060EE126DF6AE4EC22F006C08A
:1032B0000FFA07C010FA08C011FA09C012FA0B0E73
:1032C000E96E0A0EEA6EEE500A010F190CE1EE509B
:1032D0000A01101908E1EE500A01111904E1EE503B
:1032E0000A01121900E118E0090100510A01135DF9
:1032F0000BE1020E0901005D07E10A0108070A015E
:10330000085102E191DFD8D00FCA0BFA10CA0CFAAB
:1033100011CA0DFA12CA0EFA09010051030A01E19D
:10332000C4D0010A18E0030A01E0C2D0DCEC18F0B6
:10333000000901E1C1D037EC16F0DF6E090101513F
:10334000DF5C08E10A01056B0901020E006F0A014A
:10335000050E086FAFD0DCEC18F0000901E1ACD02D
:1033600037EC16F0DF6E09010251DF5C01E081D01D
:10337000020EDB6A030EDB68D950030FE66E000E07
:10338000DA20E66EA3D8E552E552E76E020EE7CFEB
:10339000DBFF020EDB50020A5DE0030A05E0010AD2
:1033A00001E062D064DF88D00A0109510A1150E0BF
:1033B000D950040FE66E000EDA20E66E070EE66EB8
:1033C0000A0EE66E070EE66E090EE66E05D00ACA14
:1033D000FAFF0A010951F96EFADF146E060EE15E7A
:1033E00014500A01066FFF0E0A01065D01E164D068
:1033F0000901FA0E856F0A01062B07CA86F90A0130
:10340000062BDE52020EDD6E0A010651F36E010E2E
:10341000DBCFF4FFF350F45C1AE2040EDBCFE9FFDC
:10342000050EDBCFEAFFEF50E66E010EDB50EA6AD5
:10343000850FE96E090EEA22E552E750EF6E040EA1
:10344000DB2A050E01E3DB2A010EDB2ADDD701D0E2
:103450000EDF0BD00901FA0E856F0A01062B07CA91
:1034600086F90A01062B01D000D00901030E006F76
:103470001BD00A010551052BEA6A050FE96E090EFA
:10348000EA22DFCFEFFF800E0A01055D0DE309019F
:10349000FA0E856F0A01062B0901900E866F0A014C
:1034A000062B0901030E006F05D061D8E0DE02D0C3
:1034B000DEDE00D000C913FA060EE15C02E2E16A2A
:1034C000E552E16EE552E7CFD9FF1200D9CFE6FF12
:1034D000E1CFD9FF020EE1260A010505EA6A050FD0
:1034E000E96E090EEA22EFCFDFFF010EDB6AFA0E6A
:1034F0000901055D06E0FA0E0901055D02E0000E16
:103500002AD00A010505E66E050EE66E090EE66E86
:10351000FBD8E552E552E552E76E010EE7CFDBFF3F
:10352000010EDB50DF5C0DE10A0105070A010551C0
:10353000EA6A050FE96E090EEA22EF6A010E0BD066
:103540000AD0FD0EDBCFE9FFFE0EDBCFEAFF910EC6
:10355000EF6E000E00D0146E020EE15C02E2E16A32
:10356000E552E16E1450E552E7CFD9FF1200D9CFF2
:10357000E6FFE1CFD9FF020EE126DF6A010EDB6A2A
:1035800006CAE6FF850EE66E090EE66EBDD8E55268
:10359000E552E552DF6E03C9E6FF91EC17F0E55204
:1035A000010EDB6A0A010651F36E010EDBCFF4FF58
:1035B000F350F45C0FE2010EDB50EA6A850FE96E0E
:1035C000090EEA22EF50E66E91EC17F0E552010E7B
:1035D000DB2AE8D7DFCFE6FF91EC17F0E55204C90C
:1035E000E6FF91EC17F0E552CFEC17F0020EE15C2C
:1035F00002E2E16AE552E16EE552E7CFD9FF12003F
:10360000D9CFE6FFE1CFD9FFFD0EDBCFF6FFFE0EEF
:10361000DBCFF7FF0800F55012E0FD0EDBCFF6FF21
:10362000FE0EDBCFF7FF0800F550E66E91EC17F0C9
:10363000E552FD0EDB2AFE0E01E3DB2AE5D7CFECD7
:1036400017F0E552E7CFD9FF1200D9CFE6FFE1CF5F
:10365000D9FF030EE126DF6A010EDB6AFD0EDBCF28
:10366000E6FFFE0EDBCFE6FF0BEC21F0E552E55264
:10367000020EF3CFDBFF020EDBCFE6FFFD0EDBCF4A
:10368000E6FFFE0EDBCFE6FF3FD8E552E552E552FE
:10369000DF6E03C9E6FF91EC17F0E552010EDB6A1D
:1036A000020EDB50F36E010EDBCFF4FFF350F45C3F
:1036B00015E2010EDB50E76EFD0EDBCFE9FFFE0EDB
:1036C000DBCFEAFFE750E926000EEA22EF50E66E74
:1036D00091EC17F0E552010EDB2AE2D7DFCFE6FFCF
:1036E00091EC17F0E55204C9E6FF91EC17F0E552B2
:1036F000CFEC17F0030EE15C02E2E16AE552E16E05
:10370000E552E7CFD9FF1200D9CFE6FFE1CFD9FFCD
:10371000030EE126DF6A010EDB6AFC0EDB50F36E5E
:10372000010EDBCFF4FFF350F45C12E2010EDB502C
:10373000E76EFD0EDBCFE9FFFE0EDBCFEAFFE750C1
:10374000E926000EEA22EF50DF1A010EDB2AE5D748
:10375000DF5000D0146E030EE15C02E2E16AE55234
:0C376000E16E1450E552E7CFD9FF1200D3
:04376C00D9CFE6FFCC
:10377000E1CFD9FF030EE126300EF36E010EF3CF39
:10378000DBFF750EF36E020EF3CFDBFF010EDF6E73
:10379000DF0425E13BDA000000008392838400000F
:1037A00000008386000000008350800B01E0010EC2
:1037B000DF6E83968386000000008396010EDB0691
:1037C000020E01E2DB06D950010FE96EDACFEAFF03
:1037D000EE50ED1003E122DAFF0E04D0D9D71EDA45
:1037E000000E00D0146E030EE15C02E2E16AE552C5
:1037F000E16E1450E552E7CFD9FF1200D9CFE6FFB2
:10380000E1CFD9FF839283940000FE0EDB50F00BD2
:10381000146E0F0E8C1414108C6E00008386000042
:1038200000008396E552E7CFD9FF1200D9CFE6FF1B
:10383000E1CFD9FF9BDF839283940000FE0EDB5023
:10384000F00B146E0F0E8C1414108C6E0000838617
:10385000000000008396FE0EDB38F00BF00B146EB8
:103860000F0E8C1414108C6E000083860000000074
:103870008396E552E7CFD9FF1200D9CFE6FFE1CF1B
:10388000D9FF74DF838283940000FE0EDB50F00BBF
:10389000146E0F0E8C1414108C6E000083860000C2
:1038A00000008396FE0EDB38F00BF00B146E0F0E4B
:1038B0008C1414108C6E0000838600000000839628
:1038C000E552E7CFD9FF1200D9CFE6FFE1CFD9FF0C
:1038D0000B0EE126A3D9280EF36E010EF3CFDBFF0A
:1038E000020EDB6A010EDBCF14F0DB06020EDBCF2B
:1038F00015F001E2DB061450151006E0040EE66E2A
:1039000044EC25F0E552EED7300EE66E77DFE55257
:103910000A0EF36E030EF3CFDBFF040EDB6A030E19
:10392000DBCF14F0DB06040EDBCF15F001E2DB0683
:103930001450151006E0040EE66E44EC25F0E55236
:10394000EED7300EE66E5ADFE5520A0EF36E050E24
:10395000F3CFDBFF060EDB6A050EDBCF14F0DB06D0
:10396000060EDBCF15F001E2DB061450151006E061
:10397000040EE66E44EC25F0E552EED7300EE66E0E
:103980003DDFE5520A0EF36E070EF3CFDBFF080EA4
:10399000DB6A070EDBCF14F0DB06080EDBCF15F079
:1039A00001E2DB061450151006E0040EE66E44EC4E
:1039B00025F0E552EED7200EE66E20DFE5520A0E26
:1039C000F36E090EF3CFDBFF0A0EDB6A090EDBCFC5
:1039D00014F0DB060A0EDBCF15F001E2DB06145013
:1039E000151006E0040EE66E44EC25F0E552EED725
:1039F000280EE66E1BDFE552B9DEDF6EDF5010E108
:103A00000F0EE66E13DFE552010EE66E0FDFE55294
:103A1000040EE66E0BDFE552060EE66E07DFE5529A
:103A200000D00B0EE15C02E2E16AE552E16EE55284
:103A3000E7CFD9FF1200D9CFE6FFE1CFD9FFFE0EC5
:103A4000DBCF1FFEE552E7CFD9FF1200010EE66E75
:103A5000EDDEE5520E011E6B1200D9CFE6FFE1CF7D
:103A6000D9FFE652FE0EDB50020A13E0030A01E022
:103A700020D0800EE66EDADEE552DF6AFD0EDB5006
:103A8000DF5C06E2140EE66ED1DEE552DF2AF6D7E1
:103A900010D0C00EE66ECADEE552DF6AFD0EDB50C6
:103AA000DF5C06E2140EE66EC1DEE552DF2AF6D7D1
:103AB00000D0E552E552E7CFD9FF1200D9CFE6FF9B
:103AC000E1CFD9FFE652FE0EDB500E011F5D25E16E
:103AD0000E011E5101E13BD0100E0E011E5D0EE1E4
:103AE000800EE66EA3DEE552DF6A100EDF5C06E2B2
:103AF000140EE66E9BDEE552DF2AF7D7100EE66E57
:103B000095DEE552200EE66EB8DEE552100EE66E4A
:103B10008DDEE5520E011E071AD0100E0E011E5D3D
:103B200005E1C00EE66E82DEE5520AD0200E0E01DF
:103B30001E5D06E30E011E6B020EE66E77DEE55299
:103B4000FE0EDBCFE6FF99DEE5520E011E2BE5529D
:103B5000E552E7CFD9FF1200B7DE010EE66E66DE52
:103B6000E5520E011E6B1200D9CFE6FFE1CFD9FF5F
:103B7000E652010EE66E5ADEE552DF6A100EDF5C99
:103B80001CE2FD0EDBCFE9FFFE0EDBCFEAFFEF50BC
:103B9000E66EDF50EA6A200FE96E0E0EEA22E55269
:103BA000E750EF6EFD0EDBCFE9FFDB2AFE0EDBCF29
:103BB000EAFF01E3DB2ADF2AE1D7C00EE66E36DE3C
:103BC000E552DF6A100EDF5C1CE2FD0EDBCFE9FF81
:103BD000FE0EDBCFEAFFEF50E66EDF50EA6A200F01
:103BE000E96E0E0EEA22E552E750EF6EFD0EDBCFD6
:103BF000E9FFDB2AFE0EDBCFEAFF01E3DB2ADF2A47
:103C0000E1D7E552E552E7CFD9FF1200958E958CAA
:103C1000958A95889596959495921200959E959C77
:0C3C2000959A95989596959495921200AF
:043C2C000D01A06B7B
:103C30000D01A16B0D01716B0D01726B0D01736BA9
:103C40000D0174690D01756B1200D9CFE6FFE1CF4C
:103C5000D9FF020EE1260D01A32B000EA423D9CF1C
:103C6000E6FFDACFE6FF8FD8E552E552000901E121
:103C700030D00D01A0510D01A15D04E10D01A16B3A
:103C80000D01A06B0D01A151E96EEA6AD890E936E9
:103C9000EA36760EE9260D0EEA22DFCFEFFF0D01A0
:103CA000A151E96EEA6AD890E936EA36760EE9263D
:103CB0000D0EEA22010EE926000EEA22A3CDEFFF47
:103CC000140E0D01A15D02E20D01A12B0D01A36BEC
:103CD000A46B020EE15C02E2E16AE552E16EE5529C
:103CE000E7CFD9FF1200D9CFE6FFE1CFD9FF0D0111
:103CF000A1510D01A05D34E20D01A051E96EEA6A07
:103D0000D890E936EA36760EE9260D0EEA22EF5013
:103D1000E66EFD0EDBCFE9FFFE0EDBCFEAFFE552DC
:103D2000E750EF6E0D01A051E96EEA6AD890E936CE
:103D3000EA36760EE9260D0EEA22010EE926000E7D
:103D4000EA22EF50E66EFB0EDBCFE9FFFC0EDBCF85
:103D5000EAFFE552E750EF6E0D01A02B010E02D0F5
:103D6000000E00D0E552E7CFD9FF12000D01A16B84
:103D70000D01A06B0D01716B0D01726B0D01736B69
:103D80000D0174691200D9CFE6FFE1CFD9FFE652E9
:103D9000DF68010E146E8150800B01E0010E145C8F
:103DA00070E18150200B01E0010E166E8150040B72
:103DB00001E0010EE824156E8150100B01E0010EA8
:103DC000040DF3CF14F08150080B01E0010E080D33
:103DD000F3501410151016100F0BDF6EDF500F0A82
:103DE0004BE0010A46E0030A41E0010A3CE0070A11
:103DF00037E0010A32E0030A2EE0010A29E00F0A47
:103E000024E0010A1FE0030A1AE0010A15E0070A8C
:103E100010E0010A0BE0030A06E0010A01E02FD0DE
:103E2000050EDF6E2ED0060EDF6E2BD0090EDF6E74
:103E300028D00A0EDF6E25D0020EDF6E22D0010ED2
:103E4000DF6E1FD0030EDF6E1CD0070EDF6E19D0A1
:103E5000040EDF6E16D0DF6A14D00B0EDF6E11D0A9
:103E60000F0EDF6E0ED00C0EDF6E0BD0080EDF6E65
:103E700008D00E0EDF6E05D00D0EDF6E02D0DF68AB
:103E800000D0FF0EDF5C06E10D01A5690D01A269FE
:103E9000000E18D00D01A551DF5C10E10D01A251FB
:103EA000DF5C0CE0FD0EDBCFE9FFFE0EDBCFEAFFAF
:103EB000DFCFEFFFDFCFA2FD010E04D0DFCFA5FDE6
:0E3EC000000E00D0E552E552E7CFD9FF120008
:023ECE00DACF49
:103ED000E4FFE2CFDAFFE9CFE4FFEACFE4FFF6CF79
:103EE000E4FFF7CFE4FFF5CFE4FFF3CFE4FFF4CF37
:103EF000E4FFFACFE4FF00EE00F0140EE80403E361
:103F0000EECFE4FFFBD700EE14F0040EE80403E369
:103F1000EECFE4FFFBD7E652F2940E010E2B000E1B
:103F20000F230E01102B000E11230E01122B000E79
:103F300013230E01142B000E15230E01162B000E59
:103F400017230E011807000E195B0E01193504E244
:103F500018510008000E19550BE30E011A2B000E24
:103F60001B231C231D230E01900E186F010E196FC9
:103F70000E010251031107E005D003CEFAFF0E0136
:103F80000251F96EFADF00CEE6FF01CEE6FF0CEC3F
:103F900025F0E552E552E55200EE17F0040EE80474
:103FA00003E3E5CFEDFFFBD700EE13F0140EE804BA
:103FB00003E3E5CFEDFFFBD7E5CFFAFFE5CFF4FF55
:103FC000E5CFF3FFE5CFF5FFE5CFF7FFE5CFF6FF50
:103FD000E5CFEAFFE5CFE9FFE5CFDAFF1100DACF61
:103FE000E4FFE2CFDAFFE9CFE4FFEACFE4FFF6CF68
:103FF000E4FFF7CFE4FFF5CFE4FFF3CFE4FFF4CF26
:10400000E4FFFACFE4FF00EE00F0140EE80403E34F
:10401000EECFE4FFFBD700EE14F0040EE80403E358
:10402000EECFE4FFFBD7E652D9CFE6FFE1CFD9FFD1
:10403000E652CFEC24F0DF6E0B018351832BEA6A4A
:10404000860FE96E0B0EEA22DFCFEFFF800E0B0129
:10405000835D02E30B01836B0B01852B9E9AE55276
:10406000E552E7CFD9FFE55200EE17F0040EE80461
:1040700003E3E5CFEDFFFBD700EE13F0140EE804E9
:1040800003E3E5CFEDFFFBD7E5CFFAFFE5CFF4FF84
:10409000E5CFF3FFE5CFF5FFE5CFF7FFE5CFF6FF7F
:0E40A000E5CFEAFFE5CFE9FFE5CFDAFF11003B
:0240AE00FE0E04
:1040B000E3CFE9FFFF0EE3CFEAFFE9CFF3FFEACF5B
:1040C000F4FFFB0EE35003E1FC0EE35009E0FB0EAE
:1040D000E30602E2FC0EE306FD0EE350EE6EF1D7BE
:1040E0001200D9CFE6FFDACFE6FFFA0EE3CFD9FF11
:1040F000FB0EE3CFDAFFFC0EE3CFE9FFFD0EE3CFCB
:10410000EAFFE9CFF3FFEACFF4FFEE66FED7ED5208
:10411000DFCFEEFFDE66FCD7FF0EE3CFDAFFE5521E
:10412000FF0EE3CFD9FFE5521200FB0EE3CFF6FFFF
:10413000FC0EE3CFF7FFFD0EE3CFF8FFFE0EE3CF5B
:10414000E9FFFF0EE3CFEAFFE9CFF3FFEACFF4FF89
:10415000EE66FED7ED520900F5CFEFFFEE66FBD716
:104160001200D9CFE6FFDACFE6FFFA0EE3CFD9FF90
:10417000FB0EE3CFDAFFFC0EE3CFE9FFFD0EE3CF4A
:10418000EAFFDE50EF5C02E1EE66FBD7F36EFF0E56
:10419000E3CFDAFFE552FF0EE3CFD9FFE552F3504C
:1041A0001200D9CFE6FFDACFE6FFFA0EE3CFD9FF50
:1041B000FB0EE3CFDAFFFC0EE3CFE9FFFD0EE3CF0A
:1041C000EAFFE9CFF3FFEACFF4FFDECFEFFFEE66C1
:1041D000FCD7FF0EE3CFDAFFE552FF0EE3CFD9FFA6
:1041E000E5521200FB0EE3CFF6FFFC0EE3CFF7FF24
:1041F000FD0EE3CFF8FFFE0EE3CFE9FFFF0EE3CFA6
:10420000EAFFE9CFF3FFEACFF4FF0900F5CFEFFFB4
:10421000EE66FBD71200FE0EE3CFE9FFFF0EE3CF01
:10422000EAFFF36AF46AEE5203E0F34AF42AFBD79A
:0242300012007A
:0E423200D9CFE6FFDACFE6FFFA0EE3CFD9FFD1
:10424000FB0EE3CFDAFFFD0EE35209E72D0EDE6E23
:10425000FC0EE31EE32AFD0ED8B4E306E31EE6528D
:10426000E652E652FD0EE124E76EFF0EE220E46E18
:10427000E652F70EE3CFE6FFF70EE3CFE6FF89EC59
:1042800021F0F90EE124E96EFF0EE220EA6E79ECEE
:1042900021F00AE176EC21F009E179EC21F008E166
:1042A00076EC21F007E108D084EC21F07FEC21F0DE
:1042B00084EC21F07FEC21F084EC21F0DE6AF90E31
:1042C000E126FF0EE222FF0EE3CFDAFFE552FF0EFA
:1042D000E3CFD9FFE552FC0EE124E96EFF0EE220A8
:1042E000EA6EEECFF3FFEFCFF4FF1200EF380F0BC3
:1042F0001200EF500F0B02E1EE52D8841200EF389B
:104300000F0B300FDE6E1200EE500F0B300FDE6E13
:104310001200FC0EE3CFE9FFFD0EE3CFEAFF100E23
:10432000E66EEE6AEE6AEF6AD890FD0EE336FE0E98
:10433000E336ED36ED36EF36FF0EE30609E0AAEC84
:1043400021F0EE52AAEC21F0EE52AAEC21F0EDD7CA
:10435000E56E1200030EEF24E8B6EF6E300EEF2488
:06436000E8BEEF6E000C48
:0A436600D9CFE6FFE1CFD9FF030E27
:10437000E126DE520F0EDD6E0F0EF36E020EF3CF4E
:10438000DBFF8EEC24F0000EE66EE66AE00EE66ED1
:10439000B10EE66EC1EC22F0E552E552E552E5526F
:1043A000ACEC1DF0F10EE66E030EE66E14EC24F09C
:1043B000E552E552E76E010EE7CFDBFF8AEC25F010
:1043C0000400F00EE66E030EE66E14EC24F0E552E7
:1043D000E552E76E020EE7CFDBFF8AEC25F0040022
:1043E00016EC1EF0020EDBCFE6FF010EDBCFE6FF80
:1043F00000EC0DF0E552E55255EC00F00DEC00F04C
:104400000E01640E0E5D000E0F5905E367EC25F0FA
:104410000E010E6B0F6B0E01080E105D000E115990
:1044200005E325EC1EF00E01106B116B0E01020E60
:10443000125D000E135905E34EEC19F00E01126BDC
:10444000136B0E01FA0E145D000E155905E311EC05
:1044500001F00E01146B156B0E01280E165D000E97
:10446000175905E31FEC0DF00E01166B176B0400D6
:10447000C7D7030EE15C02E2E16AE552E16EE55264
:06448000E7CFD9FF120096
:0A448600504C454153452056455265
:1044900049465900504C4541534520574149540025
:1044A000434C454152204953535545530041444DD7
:1044B000494E2041435449564954593A00504153BA
:1044C00053574F52443A00434F44453A00535441E6
:1044D00054494F4E3A004D415820434F4445533ABA
:1044E000004D41582053544154494F4E533A0053C4
:1044F000544154494F4E20494E56414C49442000A6
:10450000434F444520494E56414C494420202020E9
:10451000004953535545205354494C4C204F504566
:104520004E00434C454152494E472049535355454F
:10453000532000434C454152494E4720495353555F
:10454000452020005245534F4C56494E47202020CD
:10455000202020200041434B4E4F574C45444749B3
:104560004E472020200052414953494E472049538D
:10457000535545202020007C533A007C413A00529C
:024580003A00FF
:0E458200D9CFE6FFE1CFD9FF9F0EE66E28EC01
:1045900025F0E552FD0EDBCF00FEFE0EDBCF01FE67
:1045A000FB0EDBCF02FEFC0EDBCF03FEFD0EDBCFEE
:1045B000E6FFFE0EDBCFE6FF0CEC25F0E552E55200
:1045C000E552E7CFD9FF1200D9CFE6FFE1CFD9FFFF
:1045D000040EE126F29A1ACEDFFF010E1BCEDBFF9E
:1045E000020E1CCEDBFF030E1DCEDBFFF28ADECFF8
:1045F00006F0DECF07F0DECF08F0DDCF09F0DD52A8
:10460000DD5200D0040EE15C02E2E16AE552E16EA7
:10461000E552E7CFD9FF1200F29E0E011A6B1B6B19
:084620001C6B1D6BF28E1200F1
:08462800240EF66E000EF76E81
:10463000000EF86E0D010900F550F66F0900F550F7
:10464000F76F03E1F66701D03DD00900F550F16F37
:104650000900F550F26F0900F550F36F09000900E9
:10466000F550E96E0900F550EA6E090009000900ED
:10467000F550F46F0900F550F56F09000900F6CF09
:10468000F8FDF7CFF9FDF8CFFAFDF1CDF6FFF2CD49
:10469000F7FFF3CDF8FF0D01F45302E1F55307E006
:1046A0000900F550EE6EF407F8E2F507F9D7F8CDFA
:1046B000F6FFF9CDF7FFFACDF8FF0D01F607000E72
:0646C000F75BBFD71200FA
:0A46C600D9CFE6FFDACFE6FFE1CF1F
:1046D000D9FFE2CFDAFFE652DF6AFD0EDBCF15F03D
:1046E00015C014F0030E1514AA6EFF0EE76EFC0E33
:1046F000DBCF14F0E7501416156A1450A96EFB0EA8
:10470000DB50A86EA69EA69CA684F250800B01E00A
:10471000010EDF6EF29E550EA76EAA0EA76EA68240
:10472000A6B2FED7DF50E8B0F28EE8A0F29EA694C3
:0E473000E552E552E5CFDAFFE7CFD9FF1200E0
:02473E00D9CFD1
:10474000E6FFDACFE6FFE1CFD9FFE2CFDAFF726A08
:10475000716AFD0EDBB07288DBA202D0728C718CA4
:10476000DBB4728EDBA602D0718801D0718ADBA81F
:1047700002D0728401D07294DBBA7186DBAC02D0B5
:10478000A38A01D0A39ADBAE02D0A38801D0A3985C
:10479000FB0EDB50756EFC0EDBCF15F015C014F070
:1047A000156A1450766E728A718EE552E5CFDAFF83
:0647B000E7CFD9FF120063
:0A47B600D9CFE6FFDACFE6FFE1CF2E
:1047C000D9FFE2CFDAFFAC6AAB6AFD0EDBB0AC8892
:1047D000DBA202D0AC8CAB8CDBB4AC8EDBA602D0FF
:1047E000AB8801D0AB8ADBB8AC84DBBAAB86DBAC80
:1047F00002D09D8A01D09D9ADBAE02D09D8801D067
:104800009D98FB0EDB50AF6EFC0EDBCF15F015C094
:1048100014F0156A1450B06EAC8AAB8EE552E5CF39
:08482000DAFFE7CFD9FF120017
:08482800D9CFE6FFDACFE6FF6D
:10483000E1CFD9FFE2CFDAFFFC0EDBCF14F0FD0EA3
:10484000DBCF15F015C014F0156A030E1414AA6E10
:10485000FF0EE76EFC0EDBCF14F0FD0EDBCF15F084
:10486000E7501416156A1450A96EA69CA69EA68041
:1048700000000000A85000D0E552E5CFDAFFE7CFF6
:04488000D9FF12004A
:0C488400312D312D31324142433233449A
:104890004546330B0B0B0B0B3447484934354A4B19
:1048A0004C35364D4E4F360C0C0C0C0C37505152CB
:1048B000533854555638395758595A080808080873
:1048C0002A2A2A2A2A302030203013131313130ADD
:0448D0000A0A0A0ABC
:0C48D400056A046A036A026A200EE76E9F
:1048E000D8900636073608360936023603360436BF
:1048F00005360B50025C0C5003580D5004580E50F6
:10490000055809E30B50025E0C50035A0D50045A2F
:0C4910000E50055A062AE72EE4D71200CC
:04491C00C26A0F015B
:10492000386B0F01396B0F013A6B0F013B6B0F01B5
:104930003C6B700ED36E96908490949C948E959E52
:10494000959C959A9598959695949592816892964E
:10495000809692908090929480949292809212008D
:10496000D9CFE6FFDACFE6FFE1CFD9FFE2CFDAFF1A
:10497000E652F20E0D01FD1771AC03D0FD9171B03E
:10498000FD8171B4FD8571B2FD877450DF6EDF501B
:0E499000E552E552E5CFDAFFE7CFD9FF12007E
:02499E00D9CF6F
:1049A000E6FFDACFE6FFE1CFD9FFE2CFDAFFE6524A
:1049B000F20E0D01FE17ABAC03D0FE91ABB0FE8141
:1049C000ABB4FE85ABB2FE87AE50DF6EDF50E55272
:0C49D000E552E5CFDAFFE7CFD9FF120077
:0449DC0008C012F00D
:1049E00008500D02F4CF07F0F3CF06F009500E0285
:1049F000F4CF09F0F3CF08F00D02F3500726F4507E
:104A00000822E86A092212500E02F3500726F450D9
:084A10000822E86A0922000CEB
:084A1800D9CFE6FFDACFE6FF7B
:104A2000E1CFD9FFE2CFDAFFE652E652FC0EDBCF50
:104A3000DEFFDBCFDDFF010EDB50D76EDF50D66E21
:104A4000E552E552E552E5CFDAFFE7CFD9FF120094
:104A5000D9CFE6FFDACFE6FFE1CFD9FFE2CFDAFF29
:104A6000FD0EDB507F0BD56ED76AD66AF294FD0E31
:104A7000DBAE02D0F28A01D0F29AD58EE552E5CFB4
:084A8000DAFFE7CFD9FF1200B5
:084A8800FF0EE350186E480E0A
:104A900001D04C0EE76EE72EFED7E76AE72EFED771
:084AA000182EF7D700001200E8
:084AA800380EF36E00EE00F081
:104AB0000F0E01D81200EA6002D0EE6AFCD7F35064
:084AC000E9601200EE6AFCD768
:084AC8000F01236B12000F0126
:104AD000230504E10F01236B849004D00F01010E24
:064AE000236F8480120028
:0A4AE60010EE60F020EE60F0F86AB8
:104AF000019C14EC23F003EC00F0B3EC21F0FBD7A5
:024B00001200A1
:0E4B02002020202020202020202020202020E5
:034B100020200062
:014B130000A1
:064B1400A6B2FED712005C
:064B1A0000000000000095
:104B2000000000000000FF00000000000000000086
:104B30000000000000000000000000000000000075
:104B40000000000000000000000000000000000065
:104B50000000000000FF0000000000000000000056
:104B60000000000000000000000000000000000045
:074B7000000000000000FF3F
:094B770000000000000000000035
:104B80000000000000000000000000000000000025
:104B90000000000000000000000000000000000015
:104BA0000000000000000000000000000000000005
:104BB00000000000000000000000000000000000F5
:104BC00000000000000000000000000000000000E5
:104BD00000000000000000000000000000000000D5
:104BE00000000000000000000000000000000000C5
:104BF00000000000000000000000000000000000B5
:104C000000000000000000000000000000000000A4
:104C10000000000000000000000000000000000094
:104C20000000000000000000000000000000000084
:104C30000000000000000000000000000000000074
:104C40000000000000000000000000000000000064
:104C50000000000000000000000000000000000054
:104C60000000000000000000000000000000000044
:0D4C70000000000000000000000000000037
:034C7D0000000034
:104C80000000000000000000000000000000000024
:0B4C9000000000000090010000000088
:054C9B00000000000014
:104CA0000000000000000000000000000000000004
:104CB00000000000000000000000000000000000F4
:104CC00000000000000000000000000000000000E4
:104CD00000000000000000000000000000000000D4
:034EDD00000000D2
:104EE00000000000000000000000000000000000C2
:0F4EF000000000000000000000000000000000B3
:014EFF0000B2
:104F000000000000000000000000000000000000A1
:104F10000000000000000000000000000000000091
:104F20000000000000000000000000000000000081
:104F30000000000000000000000000000000000071
:084F400000000000FF0000FF6B
:084F4800000000000000000061
:104F50000000000000000000000000000000000051
:104F60000000000000000000000000000000000041
:104F70000000000000000000000000000000000031
:104F80000000000000000000000000000000000021
:104F90000000000000000000000000000000000011
:104FA0000000000000000000000000000000000001
:104FB00000000000000000000000000000000000F1
:104FC00000000000000000000000000000000000E1
:104FD00000000000000000000000000000000000D1
:104FE00000000000000000000000000000000000C1
:104FF00000000000000000000000000000000000B1
:1050000000000000000000000000000000000000A0
:105010000000000000000000000000000000000090
:105020000000000000000000000000000000000080
:105030000000000000000000000000000000000070
:105040000000000000000000000000000000000060
:0C50500000000000000000000000000054
:04505C000000000050
:105060000000000000000000000000000000000040
:105070000000000000000000000000000000000030
:105080000000000000000000000000000000000020
:105090000000000000000000000000000000000010
:01533000007C
:02533100FFFF7C
:0D533300664555454445334522451145006A
:1053400045EF44E144D644CD44C744BD44AD44A0F8
:05535000449444864472
:020000040030CA
:0100010008F6
:0100020001FC
:0100030024D8
:01000500BD3D
:010006008079
:010008000FE8
:01000900C036
:01000A000FE6
:01000B00E014
:01000C000FE4
:01000D0040B2
:00000001FF
